{
  "contractName": "ToDoList",
  "abi": [
    {
      "inputs": [],
      "payable": false,
      "stateMutability": "nonpayable",
      "type": "constructor"
    },
    {
      "constant": true,
      "inputs": [
        {
          "internalType": "uint256",
          "name": "",
          "type": "uint256"
        }
      ],
      "name": "tasks",
      "outputs": [
        {
          "internalType": "uint256",
          "name": "id",
          "type": "uint256"
        },
        {
          "internalType": "string",
          "name": "content",
          "type": "string"
        },
        {
          "internalType": "bool",
          "name": "completed",
          "type": "bool"
        }
      ],
      "payable": false,
      "stateMutability": "view",
      "type": "function"
    },
    {
      "constant": false,
      "inputs": [
        {
          "internalType": "string",
          "name": "_content",
          "type": "string"
        }
      ],
      "name": "createTask",
      "outputs": [],
      "payable": false,
      "stateMutability": "nonpayable",
      "type": "function"
    }
  ],
  "bytecode": "0x60806040526000805534801561001457600080fd5b506100596040518060400160405280602081526020017f436865636b206f7574206769746875622e636f6d2f6b7573756d612d6b65747581525061005e60201b60201c565b610165565b60008054600190810180835560408051606081018252828152602080820187815282840187905293865284815291909420845181559151805192936100ab939085019291909101906100ca565b50604091909101516002909101805460ff191691151591909117905550565b828054600181600116156101000203166002900490600052602060002090601f016020900481019282601f1061010b57805160ff1916838001178555610138565b82800160010185558215610138579182015b8281111561013857825182559160200191906001019061011d565b50610144929150610148565b5090565b61016291905b80821115610144576000815560010161014e565b90565b610375806101746000396000f3fe608060405234801561001057600080fd5b50600436106100365760003560e01c8063111002aa1461003b5780638d977672146100e3575b600080fd5b6100e16004803603602081101561005157600080fd5b81019060208101813564010000000081111561006c57600080fd5b82018360208201111561007e57600080fd5b803590602001918460018302840111640100000000831117156100a057600080fd5b91908080601f01602080910402602001604051908101604052809392919081815260200183838082843760009201919091525092955061018a945050505050565b005b610100600480360360208110156100f957600080fd5b50356101f6565b604051808481526020018060200183151515158152602001828103825284818151815260200191508051906020019080838360005b8381101561014d578181015183820152602001610135565b50505050905090810190601f16801561017a5780820380516001836020036101000a031916815260200191505b5094505050505060405180910390f35b60008054600190810180835560408051606081018252828152602080820187815282840187905293865284815291909420845181559151805192936101d7939085019291909101906102a5565b50604091909101516002909101805460ff191691151591909117905550565b600160208181526000928352604092839020805481840180548651600296821615610100026000190190911695909504601f810185900485028601850190965285855290949193929091908301828280156102925780601f1061026757610100808354040283529160200191610292565b820191906000526020600020905b81548152906001019060200180831161027557829003601f168201915b5050506002909301549192505060ff1683565b828054600181600116156101000203166002900490600052602060002090601f016020900481019282601f106102e657805160ff1916838001178555610313565b82800160010185558215610313579182015b828111156103135782518255916020019190600101906102f8565b5061031f929150610323565b5090565b61033d91905b8082111561031f5760008155600101610329565b9056fea265627a7a7231582063e00f8ab62bb2494c687586d113d663fd12f589d5bd23adde33c861ad3ed78a64736f6c63430005100032",
  "source": "pragma solidity >=0.4.22 <0.9.0;\n\ncontract ToDoList {\n    uint taskCount=0;\n\n    struct Task {\n        uint id;\n        string content;\n        bool completed;\n    }\n\n    mapping (uint => Task) public tasks;\n\n    function createTask(string memory _content) public {\n        taskCount++;\n        tasks[taskCount] = Task(taskCount, _content, false);\n    }\n\n    constructor() public {\n        createTask(\"Check out github.com/kusuma-ketu\");\n    }\n}\n",
  "sourcePath": "/Users/rhshah/eth-todolist/contracts/ToDoList.sol",
  "compiler": {
    "name": "solc",
    "version": "0.5.16+commit.9c3226ce.Emscripten.clang"
  },
  "schemaVersion": "3.4.8",
  "updatedAt": "2023-03-07T20:17:42.565Z",
  "networkType": "ethereum",
  "devdoc": {
    "methods": {}
  },
  "userdoc": {
    "methods": {}
  }
}